:030000000202E217
:0C02E200787FE4F6D8FD75814402032902
:10036E0001420001080001130001340001320001B6
:10037E0014000133000131000112000109000130A7
:10038E00000A153F065B4F666D7D077F6F080A00FA
:10039E0001020304050607091F0080C0E0F0F8FC07
:1003AE00FEFF033500AA55013940083A000000004F
:1003BE0000000000082800000000000000000138C6
:0103CE00022C
:0E05790000007F167E037DE3DDFEDEFCDFFA70
:010587002251
:0E05880000007F057E347DC3DDFEDEFCDFFA61
:010596002242
:0E05970000007F047E5D7D9BDDFEDEFCDFFA52
:0105A5002233
:0805D3007F6C7E91DEFEDFFC6F
:0105DB0022FD
:0805DC007F367EC7DEFEDFFC66
:0105E40022F4
:0B000E000000007F0B7EBEDEFEDFFC6A
:0100190022C4
:05000300120008D2CD3F
:0100080022D5
:04053A00EF4E60130D
:10053E0075430B7544BED544FDD543FAEF1F70ECE1
:01054E001E8E
:03054F0080E9221E
:1005670075BCEF00000000E5BC30E4FB53BCEFAF07
:01057700BDC6
:010578002260
:1004DE00120567EFF4601812000E120567EFF46054
:1004EE000E5307E07805EF08800103D8FDFF227F49
:0104FE0007F6
:0104FF0022DA
:100431001204DEEF64076056AD07EF640760051232
:1004410004DE80F6ED146033146017146039146013
:100451001E14703A74282538F8E6B40903E4F6222C
:10046100062274282538F8E670037609221622E55B
:1004710038B4020475380722153822E538B4070468
:0E0481007538022205382274282538F8E4F672
:01048F00224A
:0A05B500D2CD120008D2C0020008E7
:0A05BF00D2C0120003C2C0020008FF
:0A05C900C2C0120003D2C0020008F5
:0B04BB001205001204C6AF0512050078
:1004C600E4FFD2CD12000830C009EFC394FF5003F9
:0804D6000F80F4C2CD02000802
:10050000E4FEEF25E0FFC2CD12000892C012000306
:0E0510000EBE08EEC2CD120008D2C0020008D6
:10049000C2CD120008D2C0120008E4FED2CD120074
:1004A00008EF25E0FDA2C0E4334DFF120008C2CDE5
:0A04B0001200080EBE08E512000855
:0104BA00221F
:10055200AC071205BF7FA01205001204C6AF041239
:0505620004BB0205C905
:02051E00AD0727
:100520001205BF7FA01204BB1205BF7FA1120500F8
:090530001204C61204901205C960
:01053900229F
:1003D000E4FCFDF5937594FFF591759201F5957523
:1003E0009608F5B175B210759D80F5BD75BCFF7F9F
:1003F00002FE12053A758901D2AFD2A9758CFC753F
:100400008A17D28C438E40D2AB758DF4758BCDC2DA
:100410008FD28EC2A3C2B4C290E4F5801205B5AFEC
:100420000412051EAD07743A2CF8A6050CBC08EFA3
:0104300022A9
:03000B0002001ED2
:10001E00C0E0C0D075D000C000C006C007758CFC13
:10002E00758A170542E542B40803754200E514606F
:10003E00030200D2E531640170320509E509B432DC
:10004E0002800CE509B46402800FE509B4960575CB
:10005E0030018018E509B4C805753002800EE50937
:10006E00B4FA09753000753100750900758000C24B
:10007E00A3740A2542F8E6F5A0E542C394025005A2
:10008E00853980801FE542B5380E2428F8E6241500
:10009E00F8E64480F580800C74282542F8E6241595
:1000AE00F8E6F58012000EE542640760030201A82F
:1000BE00E531640160030201A8F580D2A3743525F1
:1000CE00300201A1E51464017041E5337016051389
:1000DE00E513B4140FE534B4080575330180020539
:1000EE0034751300758000C2A3740A2542F8E6F534
:1000FE00A085398012000EE542640760030201A854
:10010E00F580D2A3741F25340201A1E514640260A8
:10011E00030201A80508E508B4640F750800E5326E
:10012E00700575320180037532000513E513B46452
:10013E000F751300E53470057534088003753400AF
:10014E00758000C2A3740A2542F8E6F5A0E542C305
:10015E009402500FE532B4010585398080247580F4
:10016E0000801FE542B5380E2428F8E62415F8E67F
:10017E004480F580800C74282542F8E62415F8E6B4
:10018E00F58012000EE542B40710758000D2A374FC
:10019E001F2534F8E6F58012000ED007D006D000E9
:0501AE00D0D0D0E032CA
:03001B000205A635
:0F05A600C0E0E5126004B2B48002C2B4D0E0320B
:1001B300E4FB1203D0E514707912043120B2F61275
:1001C30005DC20B2F030B2FDE52A653C7047E52B33
:1001D300653D7041E52C653E703BE52D653F70350F
:1001E300E52E6540702FE52F65417029F513F53431
:1001F300F533751401758DEFC28CF58075120112FC
:100203000597F512120597751201120597F512D28B
:100213008CD29080A0E4F514F509F53075310175A1
:100223008DE5C28CF580751201120579F512D28C19
:100233008083E5146401704520B2221205DC20B2EC
:100243001C30B2FD7B06782AE4F608DBFC7B0875DC
:100253003802E4F514C290F533F534F51330B303E3
:100263000201B81205DC30B3030201B830B3FD75E7
:100273003802751402E4F534F5130201B8E5146489
:1002830002705612043120B2321205DC20B22C3037
:10029300B2FD7B02AF0374282BF8E6FD1205521260
:1002A30005D374282BF8E6FF743A2BF8A6070BBB8B
:1002B30008E2751401753408E4F51330B303020141
:1002C300B81205DC30B3030201B830B3FD75140175
:0F02D300753408E4F5130201B8E4F5140201B81C
:1002EE000201B3E493A3F8E493A34003F68001F272
:1002FE0008DFF48029E493A3F85407240CC8C33311
:10030E00C4540F4420C8834004F456800146F6DFDF
:10031E00E4800B010204081020408090036EE47EFE
:10032E00019360BCA3FF543F30E509541FFEE493D4
:10033E00A360010ECF54C025E060A840B8E493A39B
:10034E00FAE493A3F8E493A3C8C582C8CAC583CAC6
:10035E00F0A3C8C582C8CAC583CADFE9DEE780BE7E
:0103CF00002D
:00000001FF
